:100000000C942A000C9447000C9447000C94470071
:100010000C9447000C9447000C9447000C94470044
:100020000C9447000C9447000C9447000C948402F5
:100030000C9447000C9447000C9447000C94470024
:100040000C9447000C9447000C9447000C94470014
:100050000C94470011241FBECFE5D8E0DEBFCDBF12
:1000600010E0A0E6B0E0E6EFF9E002C005900D92E6
:10007000A238B107D9F710E0A2E8B0E001C01D92A4
:10008000A638B107E1F70E94AC040C94F9040C9473
:100090000000DF93CF9300D0CDB7DEB789836A83AA
:1000A0008981883060F58A818823A1F0ABE3B0E0D4
:1000B000EBE3F0E08081482F8981282F30E081E058
:1000C00090E0022E02C0880F991F0A94E2F7842B59
:1000D0008C93BCC0ABE3B0E0EBE3F0E08081482F51
:1000E0008981282F30E081E090E0022E02C0880F45
:1000F000991F0A94E2F7809584238C93A7C0898185
:100100008830A8F18981803190F58A818823B9F0FF
:10011000A8E3B0E0E8E3F0E08081482F8981882FF0
:1001200090E09C012850304081E090E0022E02C017
:10013000880F991F0A94E2F7842B8C9387C0A8E359
:10014000B0E0E8E3F0E08081482F8981882F90E0DB
:100150009C012850304081E090E0022E02C0880FC0
:10016000991F0A94E2F7809584238C936FC089814C
:100170008031A8F18981883190F58A818823B9F08E
:10018000A5E3B0E0E5E3F0E08081482F8981882F86
:1001900090E09C012051304081E090E0022E02C0AE
:1001A000880F991F0A94E2F7842B8C934FC0A5E324
:1001B000B0E0E5E3F0E08081482F8981882F90E06E
:1001C0009C012051304081E090E0022E02C0880F57
:1001D000991F0A94E2F7809584238C9337C0898114
:1001E0008831A0F18981803288F58A818823B9F02D
:1001F000A2E3B0E0E2E3F0E08081482F8981882F1C
:1002000090E09C012851304081E090E0022E02C035
:10021000880F991F0A94E2F7842B8C9317C0A2E3EE
:10022000B0E0E2E3F0E08081482F8981882F90E000
:100230009C012851304081E090E0022E02C0880FDE
:10024000991F0A94E2F7809584238C930F900F9066
:10025000CF91DF910895DF93CF9300D00F92CDB768
:10026000DEB789838981883090F4E9E3F0E080810A
:10027000482F8981282F30E081E090E0022E02C0D3
:10028000880F991F0A94E2F784238A8352C08981D8
:100290008830C0F089818031A8F4E6E3F0E0808105
:1002A000482F8981882F90E09C012850304081E0C0
:1002B00090E0022E02C0880F991F0A94E2F784236F
:1002C0008A8337C089818031C0F089818831A8F460
:1002D000E3E3F0E08081482F8981882F90E09C0142
:1002E0002051304081E090E0022E02C0880F991F1B
:1002F0000A94E2F784238A831CC089818831C0F084
:1003000089818032A8F4E0E3F0E08081482F898180
:10031000882F90E09C012052304081E090E0022E36
:1003200002C0880F991F0A94E2F784238A8301C0D0
:1003300002C08A818B838B810F900F900F90CF9199
:10034000DF910895DF93CF9300D0CDB7DEB78983D7
:100350006A838981883060F58A818823A1F0AAE3C5
:10036000B0E0EAE3F0E08081482F8981282F30E077
:1003700081E090E0022E02C0880F991F0A94E2F7F4
:10038000842B8C93BCC0AAE3B0E0EAE3F0E0808168
:10039000482F8981282F30E081E090E0022E02C0B2
:1003A000880F991F0A94E2F7809584238C93A7C045
:1003B00089818830A8F18981803190F58A818823EC
:1003C000B9F0A7E3B0E0E7E3F0E08081482F89814E
:1003D000882F90E09C012850304081E090E0022E70
:1003E00002C0880F991F0A94E2F7842B8C9387C070
:1003F000A7E3B0E0E7E3F0E08081482F8981882F10
:1004000090E09C012850304081E090E0022E02C034
:10041000880F991F0A94E2F7809584238C936FC00C
:1004200089818031A8F18981883190F58A8188237A
:10043000B9F0A4E3B0E0E4E3F0E08081482F8981E3
:10044000882F90E09C012051304081E090E0022E06
:1004500002C0880F991F0A94E2F7842B8C934FC037
:10046000A4E3B0E0E4E3F0E08081482F8981882FA5
:1004700090E09C012051304081E090E0022E02C0CB
:10048000880F991F0A94E2F7809584238C9337C0D4
:1004900089818831A0F18981803288F58A81882319
:1004A000B9F0A4E3B0E0E4E3F0E08081482F898173
:1004B000882F90E09C012051304081E090E0022E96
:1004C00002C0880F991F0A94E2F7842B8C9317C0FF
:1004D000A4E3B0E0E4E3F0E08081482F8981882F35
:1004E00090E09C012051304081E090E0022E02C05B
:1004F000880F991F0A94E2F7809584238C930F90BC
:100500000F90CF91DF9108951F920F920FB60F9227
:1005100011248F939F93EF93FF93DF93CF93CDB7E6
:10052000DEB78091820090918300019690938300C2
:1005300080938200E2E5F0E083E88083CF91DF9151
:10054000FF91EF919F918F910F900FBE0F901F9091
:100550001895DF93CF9300D00F92CDB7DEB7898384
:100560006A838A81882321F489810E94390408C022
:100570008A81813029F08A81823011F01B8202C089
:1005800081E08B838B810F900F900F90CF91DF9143
:1005900008950F931F93DF93CF9300D00F92CDB7A1
:1005A000DEB78B831A821982A8C00E948B0349810F
:1005B0005A81CA01880F991F9C01220F331F220FF5
:1005C000331F820F931F840F951FFC01EB59FF4FC0
:1005D0008081813009F08CC049815A81CA01880F1D
:1005E000991F9C01220F331F220F331F820F931F6D
:1005F000840F951FFC01E959FF4F208131818091C3
:100600008200909183002817390709F071C0098191
:100610001A8149815A81CA01880F991F9C01220FB2
:10062000331F220F331F820F931F840F951FFC016E
:10063000EF59FF4F2081318180918200909183009A
:10064000A901480F591F8B81282F30E0CA01B90139
:100650000E94E504CB01AC01C801880F991F9C01E1
:10066000220F331F220F331F820F931F800F911F02
:10067000FC01E959FF4F5183408349815A81CA01E6
:10068000880F991F9C01220F331F220F331F820FE7
:10069000931F840F951FFC01ED59FF4F0190F081CE
:1006A000E02D099549815A81CA01880F991F9C0143
:1006B000220F331F220F331F820F931F840F951FAA
:1006C000FC01EA59FF4F8081813091F449815A81C0
:1006D000CA01880F991F9C01220F331F220F331F5D
:1006E000820F931F840F951FFC01EB59FF4F10825F
:1006F00089819A8101969A83898389819A8183303D
:1007000091050CF452CF0F900F900F90CF91DF9185
:100710001F910F910895DF93CF93CDB7DEB7AFE56B
:10072000B0E0EFE5F0E0808180688C930E94700477
:10073000CF91DF910895DF93CF9300D00F92CDB783
:10074000DEB78B831A8219822CC049815A81CA0173
:10075000880F991F9C01220F331F220F331F820F16
:10076000931F840F951FFC01E05AFF4F90818B81EE
:10077000981791F449815A81CA01880F991F9C01E9
:10078000220F331F220F331F820F931F840F951FD9
:10079000FC01EB59FF4F108289819A8101969A835F
:1007A000898389819A81833091057CF20F900F9023
:1007B0000F90CF91DF910895DF93CF9300D0CDB705
:1007C000DEB789836A83CE01029690938500809379
:1007D00084008BE061E00E94A201A3E5B0E0E3E5C4
:1007E000F0E08081482FE3E5F0E08081282F30E0C1
:1007F00081E090E0022E02C0880F991F0A94E2F770
:10080000809584238C93A3E5B0E0E3E5F0E080815C
:10081000877F8C93A3E5B0E0E3E5F0E0808180641E
:100820008C93A3E5B0E0E3E5F0E0808180628C93F7
:10083000A3E5B0E0E3E5F0E0808180618C93A3E57F
:10084000B0E08981982F9770E3E5F0E08081887FA0
:10085000892B8C93ECE5F0E010820F900F90CF91F4
:10086000DF910895DF93CF93CDB7DEB7CF91DF91BE
:100870000895DF93CF9300D00F92CDB7DEB7898371
:100880008981282F30E03B832A838A819B818338AA
:10089000910581F02A813B81213C310531F08A812B
:1008A0009B818630910559F00EC0E2E5F0E081ECC5
:1008B000808309C0E2E5F0E083E8808304C0E2E5DC
:1008C000F0E086E08083A9E5B0E0E9E5F0E0808132
:1008D00081608C930F900F900F90CF91DF910895CE
:1008E000DF93CF93CDB7DEB7A3E5B0E0E3E5F0E06B
:1008F0008081887F83608C93CF91DF910895DF930F
:10090000CF93CDB7DEB7A8E3B0E0E8E3F0E09081A5
:1009100080E189278C93CF91DF910895DF93CF9366
:10092000CDB7DEB7A8E3B0E0E8E3F0E0908180E285
:1009300089278C93CF91DF910895DF93CF93CDB723
:10094000DEB7A8E3B0E0E8E3F0E0908180E4892737
:100950008C93CF91DF910895DF93CF93CDB7DEB71E
:100960008CE061E00E94A2018EE061E00E94A201A1
:100970008DE061E00E94A2018AE060E00E94A20195
:1009800084E160E00E94A201AFE5B0E0EFE5F0E0B5
:10099000808180688C9383E860E00E94A9020E94B5
:1009A0008B0381E00E94C9028AE00E942B01882308
:1009B00019F081E08093650084E10E942B01882377
:1009C00081F381E080937000ECCFAA1BBB1B51E147
:1009D00007C0AA1FBB1FA617B70710F0A61BB70BAF
:1009E000881F991F5A95A9F780959095BC01CD0154
:0609F0000895F894FFCF0A
:1009F60000F4017F0401000000000001E8038E04FA
:100A060001000000000001D0079D04010000000065
:020A16000000DE
:00000001FF
