:100000000C942A000C9447000C9447000C94470071
:100010000C9447000C9447000C9447000C94470044
:100020000C9447000C9447000C9447000C946D010D
:100030000C9447000C9447000C9447000C94470024
:100040000C9447000C9447000C9447000C94470014
:100050000C94470011241FBECFE5D8E0DEBFCDBF12
:1000600010E0A0E6B0E0E6EEF4E002C005900D92EC
:10007000A237B107D9F710E0A2E7B0E001C01D92A6
:10008000A637B107E1F70E942D020C9471020C947F
:100090000000382F8830C8F4662359F02BB381E074
:1000A00090E002C0880F991F3A95E2F7282B2BBBEE
:1000B00008952BB381E090E002C0880F991F3A9514
:1000C000E2F7809582238BBB089588508830F8F43E
:1000D000432F50E0662369F028B34850504081E038
:1000E00090E002C0880F991F4A95E2F7282B28BBA1
:1000F000089528B34850504081E090E002C0880F36
:10010000991F4A95E2F78095822388BB0895832F33
:1001100080518830F8F4432F50E0662369F025B30E
:100120004051504081E090E002C0880F991F4A95ED
:10013000E2F7282B25BB089525B34051504081E0BC
:1001400090E002C0880F991F4A95E2F780958223BC
:1001500085BB0895832F88518830F0F4432F50E0F9
:10016000662369F022B34851504081E090E002C01C
:10017000880F991F4A95E2F7282B22BB089522B3D6
:100180004851504081E090E002C0880F991F4A9585
:10019000E2F78095822382BB0895282F883010F4DF
:1001A00049B319C08850883028F446B330E028504D
:1001B000304011C0822F8051883028F443B330E0A2
:1001C0002051304008C0822F8851883070F440B3ED
:1001D00030E02052304081E090E002C0880F991F4B
:1001E0002A95E2F74823842F08950895382F883000
:1001F000C8F4662359F02AB381E090E002C0880F6A
:10020000991F3A95E2F7282B2ABB08952AB381E07B
:1002100090E002C0880F991F3A95E2F780958223FB
:100220008ABB089588508830F8F4432F50E0662345
:1002300069F027B34850504081E090E002C0880F39
:10024000991F4A95E2F7282B27BB089527B34850FA
:10025000504081E090E002C0880F991F4A95E2F774
:100260008095822387BB0895832F8051883090F436
:10027000432F50E06623B1F424B34051504081E055
:1002800090E002C0880F991F4A95E2F7809582237B
:1002900084BB0895832F88518830F0F4432F50E0B9
:1002A000662369F024B34051504081E090E002C0E1
:1002B000880F991F4A95E2F7282B24BB089524B391
:1002C0004051504081E090E002C0880F991F4A954C
:1002D000E2F78095822384BB08951F920F920FB698
:1002E0000F9211248F939F938091720090917300CD
:1002F0000196909373008093720083E882BF9F9170
:100300008F910F900FBE0F901F901895982F80918E
:100310006000891711F410926500809169008917B7
:1003200011F410926E0008958FB780688FBF0E94FD
:10033000EB0108951F93CF93DF93182FC1E6D0E010
:100340008C81813011F588819981612F70E00E9444
:100350005D027F836E830E9494016E817F81809114
:100360007200909173006817790741F080917200D4
:10037000909173000E945D02892B39F48D81813048
:1003800009F41C82EA81FB810995299680E0C33734
:10039000D807B1F6DF91CF911F910895662319F424
:1003A0000E94E00102C0613011F491E006C090E0CB
:1003B000623009F091E081E09827892F089508952F
:1003C000833821F0813C11F0863009F482BF89B76F
:1003D000816089BF089583E883BF08951F93DF93E9
:1003E000CF930F92CDB7DEB7182F6983CE01019658
:1003F00090937500809374008BE061E00E94F6009A
:1004000033B723B781E090E002C0880F991F2A9587
:10041000E2F78095832383BF83B7877F83BF83B74A
:10042000806483BF83B7806283BF83B7806183BFEB
:1004300083B71770887F812B83BF1CBE0F90CF912D
:10044000DF911F91089588B390E2892788BB0895B2
:1004500088B390E1892788BB08951F938CE061E001
:100460000E94F6008DE061E00E94F6008AE060E004
:100470000E94F60084E160E00E94F6008CE060E0FB
:100480000E9449008DE060E00E94490083E860E03E
:100490000E94CE0111E083E80E949A018AE00E9446
:1004A000CD00882311F01093650084E10E94CD00F7
:1004B000882389F310936E00EECFAA1BBB1B51E17A
:1004C00007C0AA1FBB1FA617B70710F0A61BB70BC4
:1004D000881F991F5A95A9F780959095BC01CD0169
:0604E0000895F894FFCF1F
:1004E60000E80323020000000001E80328020000E0
:0204F600000004
:00000001FF
